:100000000C942A000C941D090C9454090C948B092F
:100010000C9447000C9447000C9447000C94470044
:100020000C9447000C9447000C9447000C94470034
:100030000C9447000C9447000C9447000C94470024
:100040000C94D3010C9447000C9447000C94470087
:100050000C94470011241FBECFE5D8E0DEBFCDBF12
:1000600010E0A0E6B0E0E0E7F4E102C005900D92F8
:10007000A636B107D9F710E0A6E6B0E001C01D92A0
:10008000A637B107E1F70E94F8090C94360A0C94E0
:100090000000DF93CF930F92CDB7DEB781E0898365
:1000A000A6E2B0E0E6E2F0E0808180688C93A6E210
:1000B000B0E0E6E2F0E0808181608C93A6E2B0E0FF
:1000C000E6E2F0E0808182608C93A6E2B0E0E6E2B6
:1000D000F0E0808184608C93A7E2B0E0E7E2F0E09A
:1000E00080818F778C93A7E2B0E0E7E2F0E0808137
:1000F00080648C93A7E2B0E0E7E2F0E080818F7D3E
:100100008C9389810F90CF91DF910895DF93CF93E6
:100110000F92CDB7DEB781E08983A6E2B0E0E6E2D8
:10012000F0E0808180648C9389810F90CF91DF9182
:100130000895DF93CF930F92CDB7DEB781E0898327
:10014000E6E2F0E0808182958F70882F90E08170E8
:1001500090700097A9F3A6E2B0E0E6E2F0E08081BB
:1001600080618C9389810F90CF91DF910895DF9307
:10017000CF9300D00F92CDB7DEB79B838A8381E007
:100180008983E4E2F0E0808186958695EA81FB81AF
:100190008083EA81FB818081282FE5E2F0E0808185
:1001A000882F90E0002496958795079496958795DB
:1001B0000794982F802D822BEA81FB81808389818F
:1001C0000F900F900F90CF91DF910895DF93CF9311
:1001D00000D00F92CDB7DEB79B838A8381E08983FD
:1001E000E4E2F0E08081882F90E0EA81FB81918356
:1001F0008083EA81FB8120813181E5E2F0E080812A
:10020000882F90E0982F8827822B932BEA81FB81FF
:100210009183808389810F900F900F90CF91DF9110
:100220000895DF93CF9300D000D00F92CDB7DEB703
:100230009B838A837D836C8381E089838A819B8110
:10024000009761F08A819B8190936700809366009C
:100250008C819D81909369008093680089810F90C3
:100260000F900F900F900F90CF91DF910895DF9333
:10027000CF9300D0CDB7DEB78A8381E08983A7E230
:10028000B0E0E7E2F0E08081807E8C93A7E2B0E00E
:10029000E7E2F0E090818A81892B8C9389810F902D
:1002A0000F90CF91DF910895DF93CF9300D000D0CE
:1002B000CDB7DEB78A8381E08983A6E2B0E0E6E2CB
:1002C000F0E080818F7D8C938A81282F30E03C8301
:1002D0002B838B819C8180319105D9F02B813C81CE
:1002E0002231310559F5A0E5B0E0E0E5F0E080818C
:1002F0008F7D8C93A0E5B0E0E0E5F0E080818F7B1E
:100300008C93A0E5B0E0E0E5F0E080818F778C93FE
:1003100015C0A0E5B0E0E0E5F0E080818F7D8C9332
:10032000A0E5B0E0E0E5F0E0808180648C93A0E59A
:10033000B0E0E0E5F0E080818F778C93A6E2B0E05A
:10034000E6E2F0E0808180628C9389810F900F90CB
:100350000F900F90CF91DF910895DF93CF930F927D
:10036000CDB7DEB781E08983A6E2B0E0E6E2F0E057
:1003700080818F7D8C9389810F90CF91DF9108953B
:10038000DF93CF930F92CDB7DEB781E08983A6E2EA
:10039000B0E0E6E2F0E0808188608C9389810F9084
:1003A000CF91DF9108951F920F920FB60F921124F3
:1003B0002F933F934F935F936F937F938F939F936D
:1003C000AF93BF93EF93FF93DF93CF93CDB7DEB798
:1003D0008091660090916700009749F0E091660077
:1003E000F091670080916800909169000995CF9124
:1003F000DF91FF91EF91BF91AF919F918F917F918D
:100400006F915F914F913F912F910F900FBE0F9081
:100410001F901895DF93CF930F92CDB7DEB781E091
:100420008983EAE3F0E08FEF8083E7E3F0E08FEF8A
:100430008083E4E3F0E08FEF8083E1E3F0E08FEF8F
:100440008083EBE3F0E08FEF8083E8E3F0E08FEF71
:100450008083E5E3F0E08FEF8083E2E3F0E08FEF6D
:100460008083198289810F90CF91DF910895DF9366
:10047000CF9300D000D00F92CDB7DEB78A836B83C5
:1004800081E089838A81843018F083E0898333C0D6
:100490008A81282F30E03D832C838C819D8181309F
:1004A0009105D1F02C813D81223031052CF48C81D5
:1004B0009D81009761F01EC02C813D812230310565
:1004C00081F08C819D818330910581F013C0EAE336
:1004D000F0E08B8180830EC0E7E3F0E08B818083C6
:1004E00009C0E4E3F0E08B81808304C0E1E3F0E045
:1004F0008B818083198289810F900F900F900F90CC
:100500000F90CF91DF910895DF93CF9300D000D06B
:100510000F92CDB7DEB78A836B8381E089838A81AE
:10052000843018F083E0898333C08A81282F30E03B
:100530003D832C838C819D8181309105D1F02C816C
:100540003D81223031052CF48C819D81009761F032
:100550001EC02C813D812230310581F08C819D812E
:100560008330910581F013C0EBE3F0E08B81808351
:100570000EC0E8E3F0E08B81808309C0E5E3F0E0A2
:100580008B81808304C0E2E3F0E08B818083198259
:1005900089810F900F900F900F900F90CF91DF9166
:1005A0000895DF93CF9300D000D0CDB7DEB78A8314
:1005B00081E089838A81843018F083E089833FC099
:1005C0008A81282F30E03C832B838B819C81813072
:1005D0009105E9F02B813C81223031052CF48B818F
:1005E0009C81009761F02AC02B813C81223031052B
:1005F000B1F08B819C8183309105C9F01FC0ABE3C2
:10060000B0E0EBE3F0E0808180958C9317C0A8E325
:10061000B0E0E8E3F0E0808180958C930FC0A5E323
:10062000B0E0E5E3F0E0808180958C9307C0A2E321
:10063000B0E0E2E3F0E0808180958C9319828981BB
:100640000F900F900F900F90CF91DF910895DF934F
:10065000CF9300D000D000D0CDB7DEB78A837C83A3
:100660006B8381E089838B819C81009719F482E000
:10067000898341C08A81843018F083E089833BC03C
:100680008A81282F30E03E832D838D819E818130A9
:100690009105E1F02D813E81223031052CF48D81D0
:1006A0009E81009761F026C02D813E812230310568
:1006B000A1F08D819E8183309105B1F01BC0E9E3EB
:1006C000F0E08081EB81FC81808314C0E6E3F0E000
:1006D0008081EB81FC8180830DC0E3E3F0E08081C9
:1006E000EB81FC81808306C0E0E3F0E08081EB8158
:1006F000FC8180831982898126960FB6F894DEBF2B
:100700000FBECDBFCF91DF910895DF93CF9300D07F
:1007100000D000D0CDB7DEB78A836B834C8381E0F5
:1007200089838A81843018F48C81823018F083E0C8
:100730008983CDC08B81883018F083E08983C7C05E
:100740008A81282F30E03E832D836D817E81613048
:10075000710509F441C08D819E818230910534F488
:100760002D813E812115310571F0B0C06D817E81F2
:100770006230710509F459C08D819E8183309105E5
:1007800009F47CC0A3C0AAE3B0E0EAE3F0E0808112
:10079000482F8B81282F30E081E090E002C0880F45
:1007A000991F2A95E2F7809584238C93AAE3B0E001
:1007B000EAE3F0E08081482F8C81282F30E08B81A4
:1007C000882F90E0B90102C0660F771F8A95E2F783
:1007D000CB01842B8C937AC0A7E3B0E0E7E3F0E091
:1007E0008081482F8B81282F30E081E090E002C08B
:1007F000880F991F2A95E2F7809584238C93A7E3AD
:10080000B0E0E7E3F0E08081482F8C81282F30E0D2
:100810008B81882F90E0B90102C0660F771F8A95FF
:10082000E2F7CB01842B8C9351C0A4E3B0E0E4E366
:10083000F0E08081482F8B81282F30E081E090E02C
:1008400002C0880F991F2A95E2F7809584238C9324
:10085000A4E3B0E0E4E3F0E08081482F8C81282F0E
:1008600030E08B81882F90E0B90102C0660F771FBE
:100870008A95E2F7CB01842B8C9328C0A1E3B0E0EA
:10088000E1E3F0E08081482F8B81282F30E081E088
:1008900090E002C0880F991F2A95E2F78095842383
:1008A0008C93A1E3B0E0E1E3F0E08081482F8C81FC
:1008B000282F30E08B81882F90E0B90102C0660FAD
:1008C000771F8A95E2F7CB01842B8C93198289815B
:1008D00026960FB6F894DEBF0FBECDBFCF91DF9145
:1008E0000895DF93CF9300D000D000D0CDB7DEB70E
:1008F0008A836B834C8381E089838A81843018F4F6
:100900008C81823018F083E08983CDC08B81883060
:1009100018F083E08983C7C08A81282F30E03E83A6
:100920002D836D817E816130710509F441C08D8117
:100930009E818230910534F42D813E81211531054F
:1009400071F0B0C06D817E816230710509F459C0CB
:100950008D819E818330910509F47CC0A3C0ABE3F7
:10096000B0E0EBE3F0E08081482F8B81282F30E06E
:1009700081E090E002C0880F991F2A95E2F78095E8
:1009800084238C93ABE3B0E0EBE3F0E08081482F6D
:100990008C81282F30E08B81882F90E0B90102C034
:1009A000660F771F8A95E2F7CB01842B8C937AC070
:1009B000A8E3B0E0E8E3F0E08081482F8B81282FA6
:1009C00030E081E090E002C0880F991F2A95E2F79D
:1009D000809584238C93A8E3B0E0E8E3F0E0808185
:1009E000482F8C81282F30E08B81882F90E0B9012F
:1009F00002C0660F771F8A95E2F7CB01842B8C9398
:100A000051C0A5E3B0E0E5E3F0E08081482F8B81A1
:100A1000282F30E081E090E002C0880F991F2A95CE
:100A2000E2F7809584238C93A5E3B0E0E5E3F0E062
:100A30008081482F8C81282F30E08B81882F90E097
:100A4000B90102C0660F771F8A95E2F7CB01842BAC
:100A50008C9328C0A2E3B0E0E2E3F0E08081482F6D
:100A60008B81282F30E081E090E002C0880F991F31
:100A70002A95E2F7809584238C93A2E3B0E0E2E329
:100A8000F0E08081482F8C81282F30E08B81882FE7
:100A900090E0B90102C0660F771F8A95E2F7CB019B
:100AA000842B8C931982898126960FB6F894DEBF29
:100AB0000FBECDBFCF91DF910895DF93CF93CDB718
:100AC000DEB727970FB6F894DEBF0FBECDBF8A837F
:100AD0006B835D834C8381E089838A81843018F045
:100AE00083E089837EC08B81883018F083E089831E
:100AF00078C08C819D81009719F482E0898371C050
:100B00008A81282F30E03F832E834E815F814130E0
:100B1000510559F18E819F818230910534F42E81E7
:100B20003F812115310569F05BC04E815F81423004
:100B3000510579F18E819F818330910509F43DC083
:100B40004FC0E9E3F0E08081282F30E08B81882FCF
:100B500090E0A90102C0559547958A95E2F7CA0130
:100B60008170EC81FD8180833BC0E6E3F0E0808111
:100B7000282F30E08B81882F90E0A90102C0559585
:100B800047958A95E2F7CA018170EC81FD818083E7
:100B900027C0E3E3F0E08081282F30E08B81882FAD
:100BA00090E0A90102C0559547958A95E2F7CA01E0
:100BB0008170EC81FD81808313C0E0E3F0E08081EF
:100BC000282F30E08B81882F90E0A90102C0559535
:100BD00047958A95E2F7CA018170EC81FD81808397
:100BE0001982898127960FB6F894DEBF0FBECDBF5C
:100BF000CF91DF910895DF93CF9300D000D00F9273
:100C0000CDB7DEB78A836B8381E089838A818430A4
:100C100018F083E0898375C08B81883018F083E0F9
:100C200089836FC08A81282F30E03D832C838C819B
:100C30009D818130910549F12C813D812230310522
:100C40002CF48C819D81009761F05AC02C813D81EC
:100C50002230310571F18C819D8183309105E9F15C
:100C60004FC0ABE3B0E0EBE3F0E08081482F8B8135
:100C7000282F30E081E090E0022E02C0880F991FFB
:100C80000A94E2F784278C933BC0A8E3B0E0E8E342
:100C9000F0E08081482F8B81282F30E081E090E0C8
:100CA000022E02C0880F991F0A94E2F784278C93C2
:100CB00027C0A5E3B0E0E5E3F0E08081482F8B8119
:100CC000282F30E081E090E0022E02C0880F991FAB
:100CD0000A94E2F784278C9313C0A2E3B0E0E2E326
:100CE000F0E08081482F8B81282F30E081E090E078
:100CF000022E02C0880F991F0A94E2F784278C9372
:100D0000198289810F900F900F900F900F90CF91C3
:100D1000DF910895DF93CF93CDB7DEB72C970FB651
:100D2000F894DEBF0FBECDBF9C838B8381E08A83A6
:100D30008B819C81009709F40DC11982198205C12C
:100D40008981882F90E09C01220F331F8B819C8129
:100D5000FC01E20FF31F8081853009F0F3C0898127
:100D6000282F30E03C872B878B859C85813091052F
:100D700009F460C02B853C852230310509F4AFC0F1
:100D80008B859C85009709F0DDC0A5E5B0E0E5E521
:100D9000F0E080818C7F8C93ABE5B0E0EBE5F0E098
:100DA000808180648C938981882F90E09C01220F40
:100DB000331F8B819C81FC01E20FF31F8181282F5F
:100DC00030E03A87298789859A8589309105F9F03D
:100DD00029853A852A30310534F489859A8585300C
:100DE000910569F024C029853A8523313105B9F090
:100DF00089859A858D35910509F4A4C018C0A5E5AB
:100E0000B0E0E5E5F0E0808183608C939BC0A5E5D0
:100E1000B0E0E5E5F0E0808182608C9393C0A5E5C9
:100E2000B0E0E5E5F0E0808181608C938BC083E0E9
:100E30008A8388C0A5E5B0E0E5E5F0E08081837FA6
:100E40008C93ABE5B0E0EBE5F0E0808180688C93BB
:100E50008981882F90E09C01220F331F8B819C8118
:100E6000FC01E20FF31F8181282F30E038872F83A8
:100E70008F81988589309105F9F02F8138852A3046
:100E8000310534F48F8198858530910569F024C04F
:100E90002F81388523313105B9F08F8198858D35C3
:100EA000910509F44FC018C0A5E5B0E0E5E5F0E014
:100EB00080818C608C9346C0A5E5B0E0E5E5F0E06C
:100EC000808188608C933EC0A5E5B0E0E5E5F0E068
:100ED000808184608C9336C083E08A8333C0A4E52C
:100EE000B0E0E4E5F0E080818F7B8C93ABE5B0E08F
:100EF000EBE5F0E0808180628C938981882F90E01F
:100F00009C01220F331F8B819C81FC01E20FF31F98
:100F10008181282F30E03E832D838D819E81853015
:100F2000910531F02D813E812930310559F008C0FD
:100F3000A4E5B0E0E4E5F0E0808180648C9302C039
:100F400083E08A8389818F5F89838981833008F474
:100F5000F7CE02C082E08A838A812C960FB6F8947D
:100F6000DEBF0FBECDBFCF91DF910895DF93CF934A
:100F7000CDB7DEB729970FB6F894DEBF0FBECDBF51
:100F80008A836B8381E089838A81833008F0B2C0D1
:100F90008A81882309F043C0A5E5B0E0E5E5F0E0EB
:100FA00080818C7F8C938B81282F30E03987288734
:100FB0008885998589309105F9F0288539852A3009
:100FC000310534F4888599858530910569F024C010
:100FD0002885398523313105B9F0888599858D3586
:100FE000910509F487C018C0A5E5B0E0E5E5F0E09B
:100FF000808183608C937EC0A5E5B0E0E5E5F0E0FC
:10100000808182608C9376C0A5E5B0E0E5E5F0E0F4
:10101000808181608C936EC083E089836BC08A81FC
:10102000813009F043C0A5E5B0E0E5E5F0E080815E
:10103000837F8C938B81282F30E03F832E838E819A
:101040009F8189309105F9F02E813F812A30310549
:1010500034F48E819F818530910569F024C02E8102
:101060003F8123313105B9F08E819F818D35910506
:1010700009F440C018C0A5E5B0E0E5E5F0E08081E6
:101080008C608C9337C0A5E5B0E0E5E5F0E08081A9
:1010900088608C932FC0A5E5B0E0E5E5F0E08081A5
:1010A00084608C9327C083E0898324C08A81823046
:1010B00009F5A4E5B0E0E4E5F0E080818F7B8C9356
:1010C0008B81282F30E03D832C838C819D8185305E
:1010D000910531F02C813D812930310559F008C04E
:1010E000A4E5B0E0E4E5F0E0808180648C9302C088
:1010F00083E08983898129960FB6F894DEBF0FBEFD
:10110000CDBFCF91DF910895DF93CF9300D0CDB7BE
:10111000DEB78A8381E089838A81833000F58A8102
:10112000882341F4ABE5B0E0EBE5F0E0808180643A
:101130008C9315C08A81813041F4ABE5B0E0EBE5DA
:10114000F0E0808180688C930AC08A81823039F413
:10115000ABE5B0E0EBE5F0E0808180628C938981C3
:101160000F900F90CF91DF910895DF93CF9300D030
:10117000CDB7DEB78A8381E089838A81833000F529
:101180008A81882341F4ABE5B0E0EBE5F0E08081B3
:101190008F7B8C9315C08A81813041F4ABE5B0E040
:1011A000EBE5F0E080818F778C930AC08A818230F2
:1011B00039F4ABE5B0E0EBE5F0E080818F7D8C9316
:1011C00089810F900F90CF91DF910895DF93CF9396
:1011D00000D000D000D0CDB7DEB79B838A837D835B
:1011E0006C834E8381E089838A819B810097D9F04B
:1011F0008E818330C0F48E81882F90E0880F991FF4
:10120000FC01E659FF4F8A819B81918380838E8107
:10121000882F90E0880F991FFC01E059FF4F8C81C7
:101220009D8191838083898126960FB6F894DEBFD5
:101230000FBECDBFCF91DF9108951F920F920FB6D1
:101240000F9211242F933F934F935F936F937F934C
:101250008F939F93AF93BF93EF93FF93DF93CF93BE
:10126000CDB7DEB780916A0090916B00009749F08E
:10127000E0916A00F0916B00809170009091710094
:101280000995CF91DF91FF91EF91BF91AF919F9120
:101290008F917F916F915F914F913F912F910F901F
:1012A0000FBE0F901F9018951F920F920FB60F92BE
:1012B00011242F933F934F935F936F937F938F935B
:1012C0009F93AF93BF93EF93FF93DF93CF93CDB7EC
:1012D000DEB780916C0090916D00009749F0E0912D
:1012E0006C00F0916D0080917200909173000995EF
:1012F000CF91DF91FF91EF91BF91AF919F918F912E
:101300007F916F915F914F913F912F910F900FBE01
:101310000F901F9018951F920F920FB60F921124E5
:101320002F933F934F935F936F937F938F939F93ED
:10133000AF93BF93EF93FF93DF93CF93CDB7DEB718
:1013400080916E0090916F00009749F0E0916E00DF
:10135000F0916F0080917400909175000995CF9184
:10136000DF91FF91EF91BF91AF919F918F917F910D
:101370006F915F914F913F912F910F900FBE0F9002
:101380001F901895DF93CF930F92CDB7DEB781E012
:101390008983AFE5B0E0EFE5F0E0808180688C9371
:1013A00089810F90CF91DF910895DF93CF930F92B2
:1013B000CDB7DEB781E08983AFE5B0E0EFE5F0E0DF
:1013C00080818F778C9389810F90CF91DF910895E1
:1013D000DF93CF9300D0CDB7DEB79A83898389811D
:1013E0009A810E94E6000F900F90CF91DF910895AF
:1013F000DF93CF9300D0CDB7DEB71A82198282E097
:101400006FEF0E94370280E063E040E00E948503B6
:1014100083E062E040E00E94850380E690E00E9465
:101420008A0680E069E00E94B60780E00E94840896
:101430000E94490083E00E94370180E10E9454012C
:101440000E94C00188EE99E09E012F5F3F4FB901D5
:101450000E9411010E9486000E94C20989819A811E
:10146000982F82E0692F0E948402F8CFF894FFCF72
:0614700005090900090056
:00000001FF
